:20000000F2BAF335F2D54215F62AF54DF0B9F5C9F68CF686F6D2EF5FEE82ECEDEF1CEEA22D
:20002000EE8EEEADEEC8EECFFB9CFC11FBEDECDB79EF8079EF757BF0F17BF1C87FF5565074
:20004000EA8E46EA8D464FD2474F54CF474F5355C25245CD49C6444154C15052494ED44FE2
:20006000CE494E5055D4454EC44E4558D44449CD524541C44C45D45255CE524553544F52DD
:20008000C55245545552CE53544FD0504F4BC5434F4ED44C4953D4434C4541D24E45D743C2
:2000A0004C4F41C443534156C54C4C4953D44C5052494ED45345D452455345D4434CD35329
:2000C0004F554EC4455845C3534B4950C6544142A854CF544845CE4E4FD4535445D04F46B5
:2000E000C6ABADAAAFDE414EC44FD2BEBDBC5347CE494ED44142D35553D2524EC45351D283
:200100004C4FC74558D05349CE434FD35441CE504545CB4C45CE535452A45641CC4153C383
:20012000434852A44C454654A45249474854A44D4944A4504F494ED45641525054D2494ECF
:200140004B4559A44D45CD00E4C4E61AE604E685E672E651E71FE692E7DEE57FE8BBEB12E0
:20016000E80EE6D3E5FAE560E631E57EEF66E5A6E40DE5B8E3CDFD5CFC3BE40BE71CFB2572
:20018000FB55FBBFFFA5FC04FE2F4E46534E52474F4446434F564F4D554C425344442F303C
:2001A0004944544D4F534C535354434E494F464D204552524F520020494E20000D4F4B0D38
:2001C000000D425245414B00813A240B812026037E00EB803080D03930C6043AC612DF89E3
:2001E000A60080802614EE01DF8BDEB527089C8B27088D3B20E6DE8BDFB5DE894D398D1E4B
:2002000007369F910F9EBBDEBD0809A600369CC126F8319FBF9E913206394F58D399C30001
:200220003A25139F919391240DD391394FDF89D389DD8BDE8B39C60CBD4297BD429ABDFC53
:2002400086B6426E2703BDE3CFBDE3EE7F00E8BDE76ABDE7BCCEE18A3AA600BDE7BEA60194
:20026000BDE7BECEE1AFBDE7A8DEE2082703BDF412BDE76ACEE1BCBDE7A8CEFFFFDFE2BDAE
:20028000FAA425F6DFF4BD00EB27EF2506BDE3117EE53DBDE6B2DEA5FF42B0BDE311D782C5
:2002A000BDE3B9251CDCC1A300D395DD9507369F910FAE003432A700089C9526F89E91329B
:2002C00006B642B22725DC95DDBDDB828900DDBBBDE1FE07369F910F8E42AD32A700089C87
:2002E000BF26F89E913206DEBBDF95BDE3D98D037EE27ADE93EC002601393CC6043A08A61F
:200300000026FB083C30EC00EE02ED0038313120E47F0085DEF409DFF4CE42B1DFDE9F9181
:20032000079787010F9EF433C1202738D781C122275B9685262EC13F2604C6862026C130AA
:200340002504C13C251E5D2B19CEE0449EF45F0832812027FBA00027F681802635CA80DE72
:20036000DE8CC6219FF49E9196870608DFDEE7002738C03A2704C14B2602D785C04926A3B5
:20038000D7810F9EF4335D27DBD18127D708E70020F39EF45CA600082AFBA60026B29FF4AE
:2003A0009E91BD42A39EF43320B5E701E702DCDE8342ADCE42B1DFF439DE93EC00270ADC9E
:2003C000A5A3022305EE0020F20DDFC13926FBDE936F00086F0008DF95DE9309DFF4BD4285
:2003E0008EDEA1DF9DBDE560DE95DF97DF99CE4241FF423D389E9B4F3697A797A89786B7FB
:20040000426E6E00C6FED7E87E00F38DF707368DF7BDE6B28DA332063C2716BD00F3271662
:2004200081A8260ABD00EB2708BDE6B227087EEA3CCEFFFFDFA5383131BDE76ABDE566EC78
:200440000026067F00E87EE271EC0293A522F4EC023CBDF4193808080808DF897F4284867D
:20046000208C8621DE89847FBDE7BEA600084D27C8F6428481222605C801F74284813A2682
:2004800009C5012605C4FDF742844D2ADB5D26D881852602CA0281832602CA04F74284BDC9
:2004A00042A681C822BC8D0AA6002BB808BDE7BE20F6807FDF89CEE0454A2601396D000814
:2004C0002AFB20F586809786BDE6D3BDE1D8382604DE893A35C609BDE21ABDE6563CDEE21E
:2004E0003CC6A2BDEA31BDE90EBDE90CD6CECA7FD4CAD7CACEE4FA7EE9A4CEF08BBDF251EE
:20050000BD00F381A52606BD00EBBDE90CBDF2ADBDE9A2DEB53C8680368D4BDEF4DFA9A6F8
:20052000002707813A27167EEA3C08A60008AA00B74283275408EC00DDE208DFF4BD00EB64
:200540008D0220D52771BD42A04D2B037EE6D381A022D44816CEE1483AEE00BD00EB6E0084
:20056000DE9309DFAD39BDF879270B8103270F81132704B7427F39BDF88327FB20ED0D2618
:2005800036DEF4DFA976428338DEE208270709DFA3DEA9DFA77F00E8CEE1C07D42832A0385
:2005A0007EE2667EE271260FC620DEA726037EE238DFF4DEA3DFE239273ABDEBBD3736DEE4
:2005C000A1DFCCBD00F32712BDEA2FBDEF4CDECC09DFCCFC425093CC251DDCCC373630A3A3
:2005E000022514ED0283003A250D9395250938DFA138DF9B7EE3DE7EE23626037EE3D9BD2D
:20060000E3DE200EC603BDE21ADEF43CDEE23C868236BD00F38D037EE519BDE6B28D3A0841
:20062000DCA593E22202DE93BDE3BB251509DFF43926FD86FF97B5BDE1D8358102270BC66B
:20064000048CC60E7EE2387EEA3C3238DFE238DFF48D03DFF439C63A865FD7805FDEF417A4
:20066000D6809780A60027ED1127EA08812227EF20F2BDE90CBD00F381812705C6A3BDEABE
:200680003196C926058DD2DFF439BD00F3258B7EE544BDEF0D3681822704818126A97A00C5
:2006A000CD2604327EE546BD00EB8D06812C27EE3139CE0000DFA524F880309780DCA581CA
:2006C0001822D90505D3A505DB808900DDA5BD00EB20E4BDEB1BDFB5C6AFBDEA319684367A
:2006E000BDE91A3246BDE910272FDECCDC9BA3022413DC9593CC220DE600BDECFCDEC7BDCD
:20070000EE38CE00D0DFC7BDEE70DEC7A60036EC02DEB5ED0232A700397EF270BDE4048D3F
:20072000047F00E839273F8140260BBDFC29BD00F32733BDEA2F273B81A12750812C2734F8
:20074000813B275EBDE91A9684362606BDF426BDED058D57335D2609BD00F3812C27158DCD
:2007600058BD00F326D2860D2054BDFA7B27F796E626F339BDFA7B270AD6E6D1E525068DC7
:20078000E5201FD6E6D0E424FC502011BDEF0A812927037EEA3CBDFA7BD0E623058D1A5AE5
:2007A00026FBBD00EB7EE736BDED06BDEE565C5A27C1A600088D0720F686208C863F7EF9C0
:2007C000C63F5245444F0D0096872707DEABDFE27EEA3CCEE7C0BDE7A8DEA9DFF439C61674
:2007E000DEE20826037EE2388122260BBDEA07C63BBDEA31BDE7AB8D06C62CE7002012BD6B
:20080000E7BCBDE7B9BDFAA424D3387EE585DEAD864F9787DFAFBDEB1BDFB5DEF4DFA5DECF
:20082000AFA60026099687264EBDE7BC8DD1DFF4BD00EBD684271CDEF4978081222707090A
:20084000863A9780862C9781BDED0CBDEF3EBDE6EA2006BDF359BDF270BD00F32707812CF1
:2008600027037EE7C8DEF4DFAFDEA5DFF4BD00F32725BDEA2F209FDFF4BDE656084D260F84
:20088000C606A600AA012746EC02DDABC6043AA600818526E22097DEAFD68727037EE5630F
:2008A000A6002706CEE8AA7EE7A8393F45585452412049474E4F5245440D002605CE0000CE
:2008C0002003BDEB1BDFB5BDE1D82704C600204735080808BDF25130A60897CEDEB5BDEF01
:2008E0007DBDF27030C6093ABDF2D930E008270CEE0EDFE230EE10DFF47EE519C6123A35CF
:20090000BD00F3812C26F2BD00EB8DB68D0C6D0D7600842895C6187EE238DEF409DFF44F3A
:20092000C63736C601BDE21ABDE9E57F00B9BD00F380AE25148103241081014998B991B90C
:20094000255997B9BD00EB20E8D6B9262B24668B072462998426037EEE0689FF16481B16C8
:20096000CEE0303A32A10024538DA3368D23DEB73226184D276C204D78008459DEF409DF9E
:20098000F4CEE988D7B920DC64EAAEA100243620DAEC0137368D07D6B920867EEA3CD6CE3C
:2009A000A6003837D6CD37D6CC37D6CB37D6CA37D6C9376E00CE0000324D272681642703D3
:2009C000BDE90EDFB733815A271A817D271654D7883233DDD638DFD833D7DA33D7DBD8CE1A
:2009E000D7DCD6C939BD42947F00848D4C24037EF359BDEB762452812E27F481A82742819B
:200A0000A727E281222608DEF4BDED067EEF3E81A4260D865ABDE921BDEBC743537EECE3D7
:200A200080B124318D06BDE91AC6298CC6288CC62C3CDEF4E1003826037E00EBC6027EE215
:200A400038867DBDE9217EF593BDEB1BDFCC968426927EF25116588DE037C1222521C12C65
:200A6000241F8DC833C128241937BDE91A8DC0BDE90F32DECC3C36BDEF0D32371620038D56
:200A8000A333CEE0003AEE00AD007EE90E864F9782BDEBC7DD80BDF28BBDEBC77D00822600
:200AA000069480D48120049A80DA817EECE3BDE910261096DB8A7F94D797D7CE00D6BDF24F
:200AC000D920407F00847A00B9BDEE56D7D0DFD2DED9BDEE5896D010270786012403D6D09C
:200AE0004097CE07369F910F35DED25C095A2604D6CE200B3208A10027F3C6FF2401509E6B
:200B0000913206CB0159D4882702C6FF7EF2BCBDEA2F168D0ABD00F326F5395FBD00F3D704
:200B20008397B1BD00F38D4E24037EEA3C5FD784BD00EB25048D3F250A16BD00EB25FB8DA3
:200B40003524F781242608730084CB80BD00EBD7B2D6865A26037EEC079B86802826037E3F
:200B6000EBDE7F0086DE959C972714DCB1A300273FC6073A20F181412504805B80A53938BC
:200B80003C8CEA4C2604CEEBB739DC99DDBDC30007DDBBDE97DFC1BDE1FEDEBBDF99DEBFB4
:200BA000DF97DEC1DCB1ED004F5FED02ED04A7060808DFB3399080000000BD00EBBDE90C26
:200BC000BDE90E96CE2B67BDE90E96C981902508CEEBB5BDF2D92656BDF30BDCCC39DE83AB
:200BE0003C5F37DEB13C8DD238DFB1335CD7823233DECC3C3736D682BD00F3812C27E3BD15
:200C0000EA2938DF83C6FF37DE979C992725DCB1A3002707EC02BDE22D20EFC612324D2790
:200C2000BC9683260BD682E104275CC6108CC6087EE238324D27F7CC0005DDDEDCB1ED0083
:200C4000D682E704BDE21ADFBBC60B4F7D008327053233C30001ED058D5FDDDE08087A0066
:200C60008226E6BDE22D24037EE236BDE21E830035DD994F09A7059C8926F9DEBB969993CF
:200C8000BBED0296832631E604D7824F5FDDDE3233DDCC3736A305243FDCDE323327048D31
:200CA00018D3CC08087A008226E3DD890505D389C30005BDE22DDFB339861097BFEC05DD83
:200CC000914F5F0525127800DF7900DE2404D39125067A00BF26EC397EEC2B9F91DC9193EB
:200CE00099214F7F0084DDCAC6907EF2C3BDE90ECE4334BDF42938CE4333200ADFC78D5FAD
:200D0000DFD2D7D0390986229780978108DFDCDFD2C6FF5CA600270E089180270491812676
:200D2000F28122270109DFDED7D037DCDC8343343322078DC7DEDCBDEE3AFE423D8C4250B6
:200D40002605C61E7EE23896D0A700DCD2ED0286FF9784FF423FDFCCC6053AFF423D397F3C
:200D60000085374FDD89DC9D9389939B250BD39BDD9DDE9D08DF9F3339C61A73008527C4F7
:200D80008D033320DDDEA1DF9D4F5FDDC5DE9BDFC1CE4241BC423D27048D3220F7DE959C93
:200DA0009727048D2220F8DFBBDEBB9C992738EC02D3BBDDBBA6012AF0E60458CB053A9C26
:200DC000BB27E88D0820F8A60108082A16E6002712EC02939D220CEC0293C12306DFC5EC3F
:200DE00002DDC1C6053A39DEC527FB4FE6005AD3C1DDBDDE9DDFBBBDE200DEC5DCBFED02B2
:200E0000DEBF097EED87DECC3CBDE9E5BDE90F38DFDCE600DECCEB002405C61C7EE238BD46
:200E2000ECFCDEDCE6008D10DEC78D2C8D0CDEDC8D26BDED3A7EE92EEE0207369F910F350F
:200E4000DE9F5C200432A700085A26F9DF9F9E91320639BDE90FDECCE6008D14260FEE070D
:200E6000099C9D260637D39DDD9D330839EE0239BC423F260CFF423D0909090909FF423FAC
:200E80004F398D037EECE28DCA7F00845D39BDEF10C601BDED5F96CDBDED00A70031317EDE
:200EA000ED3A8D0220DE8DDF275DE600398D434FE1002303E6004F3736BDECFEDEC78D9836
:200EC000333A33BDEE3A20D78D28A6001020E1C6FFD7CD8D4481292703BDEF478D1427273A
:200EE0005F4AA10024D116E00050D1CD23C9D6CD20C5BDEA2930EC05DDC7EC00ED05313186
:200F0000313132DEC716397EEC2EBD00EBBDE90CBDEBC096CC26F0D6CD7E00F3BDEE87260B
:200F2000037EEFF4BDE22CA600366F00DEF4DFDEDE89DFF48DE3BDF35932DE8BA700DEDEF7
:200F4000DFF4398D07DFA5BDEA2F20C1BDE90C96CE2BB496C9819022AEBDF30BDECC398D56
:200F6000EEE6007EECE28DDBDEA5E70039CEF524200BBDF1607300CE7300DC2003BDF16065
:200F80005D26037EF28BCE00D616276DD0C9276A2B0A97C996DB97CECE00C950C1F82F5AC4
:200FA0004F6401BDF080D6DC2A0B630163026303630443890097DD96CD99DA97CD96CC995E
:200FC000D997CC96CB99D897CB96CA99D797CA172A4725028D665F96CA263496CB97CA965D
:200FE000CC97CB96CD97CC96DD97CD7F00DDCB08C1282DE34F97C997CE398D780C20A75C7D
:201000007800DD7900CD7900CC7900CB7900CA2AEE96C91097C923DC8C25097800DD8600EE
:2010200097DD20117C00C9272F7600CA7600CB7600CC7600CD24048D1227E9397300CE73A6
:2010400000CA7300CB7300CC7300CDDECC08DFCC2605DECA08DFCA39C60A7EE238CE008C2D
:20106000A60497DDA603A704A602A703A601A70296D5A701CB082FE896DDC008270C670189
:20108000660266036604465C26F4398100000000037F5E56CB7980139B0B648076389316B1
:2010A0008238AA3B20803504F334813504F334808000000080317217F8BDF2AD2E037EEC87
:2010C0002ECEF0A596C9808036868097C9BDEF7DCEF0AABDF1C6CEF08BBDEF72CEF090BD0D
:2010E000F5F8CEF0AFBDEF7D33BDF3E9CEF0B48D6F276CBDF1798600978D978E978F97905D
:20110000D6CD8D26D6DDF74255D6CC8D1DD6DDF74254D6CB8D14D6DDF74253D6CA8D10D618
:20112000DDF74252BDF2487EEFD626037EF05D0D968D56272A241696909BDA9790968F9988
:20114000D9978F968E99D8978E968D99D746978D76008E76008F7600907600DD0C20D13941
:20116000EC0197DB8A80DDD7D6DBD8CED7DCEC03DDD9A60097D6D6C9394D27199BC9464938
:2011800028138B8097C926037EEFF796DC97CE3996CE43200232322B037EEFF47EF058BDCD
:2011A000F29F270F8B0225F47F00DCBDEF897C00C927E9398420000000BDF29FCEF1B45FE0
:2011C000D7DCBDF2518C8D9827797000C98DAA7C00C927C8CE008DC604D782C60196CA9131
:2011E000D7261396CB91D8260D96CC91D9260796CD91DA26010D0759240CE700087A00826C
:201200002B372731C6010625127800DA7900D97900D87900D725DF2BC420DB96DA90CD9779
:20122000DA96D992CC97D996D892CB97D896D792CA97D720D4C64020CD565656D7DD8D08F4
:201240007EEFD6C6147EE238DE8DDFCADE8FDFCC3936EC0197CE8A80DDCA7F00DDE600EE0B
:2012600003DFCCD7C93239CE00BF2006CE00BA8CDEB596C9A70096CE8A7F94CAA70196CB81
:20128000A70296CCA70396CDA7043996DB97CEDED6DFC97F00DDDED8DFCBDED9DFCC39DCED
:2012A000C9DDD6DECBDFD8DECDDFDA4D39D6C92708D6CE59C6FF250150398DF1D7CA7F008B
:2012C000CBC68896CA8080D7C9860016DDCC97DD97CE7EEFD27F00CE39E60027D0E601D876
:2012E000CE2BCED6C9E100261DE601CA7FD4CAE1012613D6CBE102260DD6CCE1032607D63B
:20130000CDE00426013956D8CE20A8D6C92741C0A096CE2A067300D5BDF03FCE00C9C1F879
:201320002E07BDF0747F00D5397F00D596CE497600CA7EF080D6C9C1A0241D8DCED7DD96B5
:20134000CED7CE808086A097C996CD97807EEFD2D7CAD7CBD7CCD7CD39BD429DCE0000DFCF
:20136000CEDFC9DFCBDFCCDFC1DFBF256B812D26057300CF2004812B2605BD00EB25598117
:201380002E272D8145262EBD00EB256981A8270E812D270A81A72709812B27052008730073
:2013A000C2BD00EB254F7D00C2270A7000C120057300C026C596C190BF97C127142A0ABD41
:2013C000F1B97C00C126F82008BDF19F7A00C126F896CF2A837EF593D6BFD0C0D7BF36BD74
:2013E000F19F33C0308D022091BDF26CBDF2BCCE00BA7EEF7DD6C15858DBC15880301B9765
:20140000C1209E9B3EBC1FFD9E6E6B27FD9E6E6B2800CEE1B68D0CDCE2DDCAC6900DBDF2ED
:20142000C78D037EE7A8CE43358620D6CE2A02862DA70097CEDFDE088630D6C926037EF517
:201440001C4FC1802208CEF40DBDF0EF86F797BFCEF408BDF2E32E10CEF403BDF2E32E1049
:20146000BDF19F7A00BF20F0BDF1B97C00BF20E0BDEF6DBDF30BC60196BF8B0A2B08810BF0
:2014800024044A1686024A4A97C1D7BF2E11DEDE862E08A7005D2705863008A700DFDECEE3
:2014A000F529C68096CDAB0397CD96CCA90297CC96CBA90197CB96CAA90097CA5C565928D9
:2014C000E32403C00B50CB2F08080808DFB3DEDE0817847FA7007A00BF2605862E08A700EF
:2014E000DFDEDEB353C4808CF54D26B8DEDEA60009813027F9812E270108862BD6C1271EB3
:201500002A03862D50A7028645A701862F4CC00A24FBCB3AA703E7046F052004A7006F014C
:20152000CE4335398000000000FA0A1F0000989680FFF0BDC0000186A0FFFFD8F00000037F
:20154000E8FFFFFF9C0000000AFFFFFFFFBDF29FCEF524BDF25127714D260A96CE2A037EAB
:20156000F2437EEFF5CE00C4BDF2725F96DB2A10BDF335CE00C496DBBDF2E3260343D680DB
:20158000BDF28D37BDF0B9CE00C4BDF0EF8D3A3246249096C927037300CE398138AA3B2987
:2015A000077134583E5674167EB31B772FEEE3857A1D841C2A7C6359580A7E75FDE7C680A9
:2015C000317218108100000000CEF59B8D36BDF26C96C9818825037EF190BDF33596808B6E
:2015E0008127F44A36CE00BABDEF72CEF5A08D177F00DC32BDF17939DFDEBDF26C8D058D3E
:2016000008CE00BA7EF0EFDFDEBDF267DEDEE600D7CF08DFDE8DEDDEDEC6053ADFDEBDEF59
:201620007DCE00BF7A00CF26EC39BDF2AD2B2127158D10BDF26C8D0ECE00BA8DC7CEF08BB0
:20164000BDEF7D7EF335FE4218DFCAFE421ADFCCFEF682DFD7FEF684DFD9BDF0F6FC425424
:20166000C3658BFD421ADDCCFC4252C9B08905FD4218DDCA7F00CE868097C9968F97DD7E56
:20168000EFD640E64DABCEF6F6BDEF7DBDF29FCEF6FBD6DBBDF1C0BDF29FBDF3357F00DCCA
:2016A00096D6D6C9BDEF75CEF700BDEF7296CE362A0ABDEF6D96CE2B06730088BDF593CE91
:2016C000F700BDEF7D324D2A03BDF593CEF7057EF5F8BDF26C7F00888DB2CE00C4BDF272B0
:2016E000CE00BABDF2517F00CE96888D06CE00C47EF1C63620C681490FDAA283490FDAA2D5
:201700007F000000000584E61A2D1B862807FBF88799688901872335DFE186A55DE7288306
:20172000490FDAA2A154468F138F524389CD86FF9700860197018601970396EA8155260A9C
:20174000FE4221A6004A26026E00CE00806F00088C010026F8CE41FD08A6026302E6026FBA
:2017600002431127F3FF4250DFA1DF9DDC9D830064DD9B9E9BCEF7CFCC00EB8D30CEF7DEB0
:20178000CC42008D288639CE4285A700088C42AF26F87342AFCE4346DF93BDE3CFBDFBD4C0
:2017A000CEF80FBDE7A8865597EA7EE271DDBFE60008A600DFC1DEBFA70008DFBFDEC15A28
:2017C00026EF39017F00E8BDE3EEBDFBD420DB0E7C00F526037C00F4B600007EE1C8313BDD
:2017E00000003B00003B00003B00003B00003B00003B00007EEC2E4FC75259FF045EEC2EB3
:20180000F7C3007600011070840001151A0B00804D4943524F434F4C4F522042415349435D
:2018200020312E300D434F505952494748542031393832204D4943524F534F46540D007AE2
:20184000422B261AB64282880FB742828A80FE4280A700C616840F2702C658F7422BCE03F3
:20186000FA0926FD39BD42853C378DD38D1527FAC660FE4280E70020524F8D5426058D6464
:201880004C274ABD42A93C3786FB8D44162703F8423BB7423B5D27068D428D36262ACE42B9
:2018A000305F5AF7423959241D7C42398D34371608A800A400E700334D0D27EA368D1D8DE8
:2018C00023A1003226244F8C86034D333839867F97029603438402270286FF39FE421D7EB1
:2018E000F861D702B6BFFF8AC039C6F8CB084424FBFB423986FE8DD8B7423ABD42AC271156
:20190000CEF97CC1202627B642828B10B7428220B5172705C11A231B8CC61DCEF9398DAEEB
:20192000270CCEF94CC120260573421C20983AA60020978D99B8421C2607B6421C2607CAC1
:2019400020178A402084CEF9AB3AA6002AF6F64282C4701B20EE400D203031323334353687
:201960003738393A3B2C2D2E2F130D20002122232425262728292A2B3C3D3E3F8808B3B2C7
:20198000829B9084A38A819EBCBAB9A5C7159C098C80B55EB18F0A0000000D20008E939826
:2019A000979694959D868992BB91B7B6898082878D868548494A4B4C4D4E4F508F8C888B56
:2019C00055818E838A84BD42883C3736D6E8274B1607360F17D603C40426FA8D2D5F8D2CA6
:2019E000C608375F44598D24335A26F68D1C320632810D270B7C422AF6422AF142292507E7
:201A00007F422A8D108D0E333839C601D7038D00FE42232003FE42257EF861FE42808108C6
:201A2000260C8C40002750866009A700202E810D2614FE42808660A70008FF4280F64281B6
:201A4000C51F26F120168120252D4D2B0C814025068160250484DF8840A70008FF42808CC1
:201A600042002613CE4000EC20ED0008088C41E026F5C660BDFBD932333839BD428B3C3782
:201A80003696E82708FE4227FC4229200AF64281C41FCE10108620DFE4D7E697E7323338A0
:201AA00039BDFBD4BD42917F427FCE42B2C601BDF8657D00E9264D7D00E826444D2A1E7D34
:201AC000423A2719BDE4B2A600083C36847FDE898D48DF8932384D2AEEDE8920D2810C2754
:201AE000C0810826085A27BF098D3720C28115260A5A27B38608BDF9C620F681030D2705A9
:201B0000810D260E4F0736BDE7666F00CE42B1320639812025998D022095C18024F3A7002A
:201B2000085C7EF9C68D433CBDEF4738C10822375A2B0586103D2008E6002A03C470215F5F
:201B4000D7828D70A6002B014F840FBA423C9A828A80A700398D138D5B4FE6002AF27342AF
:201B60003CF4423CE700397EEC2EBDEA2CBDEF0DC13F22F337BDEF47C11F22EB3754862016
:201B80003DC34000373630E60354383A323384015649C610544A2AFCF7423C398DCFC6FFC7
:201BA000A6002A0EB4423C2708E60054545454C4075C8D037EEA294F5D2A01437EECE327DA
:201BC00013BDEF0DC108221D5D27065A86103DCA0FCA808CC660CE4000FF4280E700088C5B
:201BE000420026F8398DEDCEF8337EE7A8B6427F2603BDF8837F427F97CD27037EEE919792
:201C0000D07EEE9D2706BDEF4CFF421FFE421F6E00DE993CBDEB1BBDEA29DF8938DC899CB2
:201C20009927037EEC2E7EECE3BDEBBA8301FF23037EEC2EC341FFFD428039DE93FF426F3D
:201C4000DE95FF42715F81A92605BDFDDBC604F74267FC4271B3426FFD426C8D2EFE426F84
:201C6000FF427886FFB74276FC4271B34278230E4D2607C1FF2703F742768D4420E27042D2
:201C8000757F42768D3A8601970339BDFD29CE425FFF4278DFBF6F096F0ACE4257C608BDEB
:201CA000F7B27F4275860FB742768D0B8D127C4275CE0000BDF861FE422F8D450926FB394F
:201CC000010FF64276F7427BB642762709FE4278AB00085A26FABB4275B7427AFE42788DE5
:201CE00020863C8D1EB642758D19B642768D144D270AA600088D0C7A427B26F6B6427A8D1E
:201D00000286553C3636C608306400CE00202503CE00403C860197030926FD4F9703380905
:201D200026FD5A26E3323238398D08BD00F327F87EEA3CCE42566F00862008A7008C425FE9
:201D400026F8BD00F327E1BDE91ABDEE53F7425627D637CC4257DDBF337EF7B281A926037E
:201D60007EFDB1814D26037EFE064F8D22BDE3CF73426EFC426CD393BDE21EDE93FF427837
:201D80008D4E2AF9DF95CEE1BBBDE7A87EE2EB368D10327D42742637B142672732C6247E20
:201DA000E2388D8FBDFE3726037EFF4EC6227EE2388D2886048DD8FC4271B3426FB3426C6F
:201DC00024037EE236FE426FFF42788D032AF939BDFEB626D7B6427527D239BD00EBC60176
:201DE000D786BDEB1B7F0086BDE90EEC02BDE22DFF4271DE89E60458CB053AFF426FBD007E
:201E0000F327CC7EEA2FBD00EB86028D82CE0000BD00F32706BDEA2FBDEF4CDF89FC426A7D
:201E2000D389FD421FFC426CD3893736382099BDFDA28D56269D3996E24C260ABDFBD48643
:201E4000538D3EBDE7B98D62BA427526335F37CE425F3AA600DEE20826028D25CE42573A26
:201E6000A00030AA00A7005CC10826E3324D270B7D425627068D10260720BC86468D224FB0
:201E8000397F00E87EF9C6BDFF4E86FF168D2A2607B64275402BF34AB7427B39B64000889C
:201EA00040D6E25C2603B7400039BDFF4ECE425FFF4278860F8C86FF5F36F74273010F8DBF
:201EC000DBFE42784F8D5B46813C26F98D46B742758D41B7427633112231BB4275B7427A1C
:201EE000B64276B7427B27198D2A7D42732607A700A100261908BB427AB7427A7A427B26D4
:201F0000E78D11B0427A270886018C86038C8602B7427B398608B7427C8D07467A427C2609
:201F2000F8398D08F6427D5AF1422C397F427D7D427E26118D0726FC8D0327FC397C427DA5
:201F4000D603C410398DF627FC8DF226FC39010F7F427C8DDF8D2D22128D2225127A427C56
:201F6000B6427C81A026ECB7427E398D1022E68D1325E67C427CB6427C806020E87F427DE6
:201F80008DB620057F427D8DC0F6427DF1422D2204F1422E397F427C39BDEA2FBDEF0D5D17
:201FA000262F7EEC2E8DF5378DEF3236374FDE09D608DF0B8880B7BFFF30E60108085C263C
:201FC000FBD608C44027ED306A0026E24FB7BFFF38396E696C7265626D616843F883F9C60A
:201FE000FF4EFEB9FCC0FFABFCB7ECE3EBC700C94200420342064209420C420F4212F72E48
:00000001FF
